:020000040800F2
:2000000038E90008E9CA000895CB0008A5CB00089DCB0008B1CB00088DCB000891CB000864
:2000200091CB000891CB000891CB0008ADCB0008A9CB000891CB0008A1CB000899CB000854
:20004000FDCB0008FDCB0008FDCB0008FDCB00082FC40008B5390008453C0008FDCB000816
:20006000ADC3000899C30008F7C3000815A60008FDCB0008FDCB0008FDCB0008FDCB0008DF
:20008000FDCB0008FDCB0008FDCB0008FDCB0008FDCB0008B185000825C40008FDCB000851
:2000A000FDCB0008FDCB0008FDCB0008FDCB0008FDCB0008FDCB0008FDCB0008FDCB0008C0
:2000C000FDCB0008FDCB0008FDCB0008FDCB0008FDCB0008FDCB000825C90008FDCB00087A
:2000E000FDCB0008FDCB0008FDCB0008FDCB0008FDCB0008FDCB0008FDCB0008FDCB000880
:20010000B44A10B502F11C0090E818001069C018D268B14B127C4FF0000141EB040140F2C5
:20012000844404FB02320CCA994208BF90428CBF0C20002010BDF0B5A84E0C461546074681
:2001400070210422F01C317000210CF007FC0021042206F108000CF001FC347375733846CF
:20016000B070F0BD90B5071C4FF000041FD19A4940F28440784360310858C0B138460BF0A8
:20018000DCF8A0B138460BF0DFF892491431096881420CD1AA49F801401A016801F00F0109
:2001A000032904D150F8180CC00938BF0124204690BD2DE9F047874C824604F10C000068E9
:2001C000DFF88082057C4FF060092846C8F81090FFF7C8FF30B92846002103F0A9FC0E2054
:2001E000BDE8F087E168087C8A7C514602F025FB0026071C1BD19AF80200612803D06028BA
:2002000018BF371C00D101272846FFF7ABFF40B1E168087C897C3A4602F0C5FB30B90827A0
:2002200005E02846314603F083FC01260E27A6B92846FFF797FF70B9E16881488A7C103844
:20024000C0EBC51001682846D14001F0010103F06FFC0E2707E0C8F80090062F02D0072F3C
:2002600001D1F6E70D273846BDE8F0879C48006870470A3806D0203804D0603818BFB0F1AA
:20028000200001D1012070470020704788280ADC882811D008380FD0801E0DD01E380BD0CB
:2002A000801E09D00AE08A3806D01E3804D0801E18BFB0F1140001D1012070470020704770
:2002C00002461078B0F185014FF0000018BFB1F11C0103D19178890928BF0120704710B55F
:2002E0003C499A4C41F21403002297484B6023688A60C018086005F006FE10BD0346B1B177
:20030000774A121D10680068807802090FD310F0030F0CD0086A50B1B0F5805F07D8042B35
:200320004FF0010004D0062B02D00A2B00D00020704710B5002469B18A78EC2A0AD10428A8
:2003400008D10420FFF7DAFF20B1086AB0F5007F08BF0124204610BD024680B5002059B1A4
:20036000032A09D1774A12681268927812F00F0F02D10F6A07B9012080BD10B5024681B1EE
:200380008878B0280DD148794F280AD18879C22807D1C878D03801280AD9401F08D0401FE7
:2003A00001D0002010BD1046FFF7D6FF04460FE0042A4FF000040BD10420FFF79FFF38B137
:2003C000087B012804D1086AB0F5007F08BF0124204610BD54F30008D4EB000888F300084E
:2003E000C0B5071C21D0574802681168887800F00303022B19D1C00817D30B78387B852B4D
:2004000005D14978490824BF797B40EA012060B1137CC24A40F28441594356582EB14FF0C7
:20042000FF31B1FBF6F1814201D20020C0BD3A6A70430021904208BF01210846C0BDC046C2
:20044000D8FEFF0430FEFFFF30B50546FFF771FF18B92846FFF791FF08B1012030BD887875
:2004600040280CDC402815D020382AD0001F28D0401E16D0801E0DD0801E22D00FE04238BE
:2004800008D082381DD0001F0BD01D3818BFB0F1130004D12846FFF75FFF04461EE0002004
:2004A00030BD0024062D18BF0A2D08D12846FFF725FF20B10846FFF793FF00B101242046A6
:2004C000EBE7042D4FF0000408D10420FFF716FF20B10846FFF784FF00B10124204630BD0D
:2004E0005CF30008B0B5044616480068007C0F4630B92FB10AF021FF01280ED0022801D07A
:200500000020B0BD08F01AFD20B120463946FFF79BFF00E00120054611E020463946FFF7E1
:2005200008FF012558B92046FFF727FF38B9B878E52803D12046FFF70FFF00B90025284643
:20054000B0BDC04660F3000810260100E4ED00082DE9F041AF4CE16808684078ADF1340D2B
:20056000C0F3430838F0010000F0DC80B8F1030FC0F2D680A64DB8F10C0F10DDB8F10F0FDA
:2005800040F0CE80206829460E220CF007FA2068E1688860E16809200E22CA60C7E06846DF
:2005A000002134220CF0DAF98020294627224FF0000CE3688DF80100891C8DF800201868B7
:2005C00081F800C00278A12A30D000791A688DF8030090798DF80C00107A8DF80400907A63
:2005E0008DF80500107B8DF80600507B8DF80700907B8DF80200D57B501C8DF80F50067854
:200600000627042576082FD380788DF80B0050798DF80D00D0798DF80800507A01268DF8D5
:200620000900D27A0E708DF80A201AE0C07819688DF8030008798DF80C0048798DF80400A1
:2006400088798DF80500C8798DF80600087A8DF80700487A8DF80200C87A032504278DF8D2
:200660000F00E3681868401C40781968C0F340100590887810F0030025D0401E08D0401EE7
:200680001FD14878400838BF3D1C04D33D4604E04878400801D2485D05E04A19485D12F85D
:2006A000011C40EA0120089018688078C0080CD3197C1A4A089F40F28440484310587843D7
:2006C00002E0586800E0604608909DF80200EC2812BFA1284FF400700890089F604627B1A5
:2006E00019688978090938BF0120069069464046FFF7F8FE68B9E068007C0AF01EFE022872
:2007000005D108F01BFC002818BF15200FD10A200DE06846FFF74DFD09E0C046FCEB0008FD
:200720000B2004E0087C012103F002FA00200DB0BDE8F08102460846111C00D108B90020AD
:200740007047AB4A40F2844303FB012211684FF4F813B3FBF0F051B9516A19B1B049096885
:20076000012904D0B0F5807F88BF4FF480707047F0B5144602780025083A0ED0921E0CD05C
:200780001E3A20D0921E1ED05E3A13D0921E11D01E3A0AD0921E08D004E007790FB94FF43E
:2007A000807714E02F46012511E08279C379067A477A03E0827AC37A067B477B43EA022399
:2007C00046EA032601E0C679077A47EA0627954840F2844202FB0102906B10B1166816B9E3
:2007E00010E04FF400764FF0FF32B2FBF6F2BA4208D328B108463146FFF79CFFB84201D377
:200800007E4301E00026032526602846F0BDC0469CF3000854F30008F0B50F1C08BF0120A3
:2008200000F0BA80067800213246552A43DC552A00F091801E2A24DC1E2A00F0A880122A75
:2008400012DC122A00F0A180002A00F0A080D21E00F09B80521E00F09280121F00F0958080
:20086000961E00F096808EE0B2F1150600F08480761F00F08A80761E00F08980B21E76D06C
:2008800081E02F2A0CDC2F2A00F08180B2F123067BD0B61E79D0F61E77D0B21E79D072E072
:2008A000B2F1350673D0B61F5AD0F61F53D0B6F10B026AD067E0A22A19DCA22A30D08F2A65
:2008C0000BDC8F2A63D0B2F15A065ED02B3E32D0F61E5AD0B21E5CD055E0B2F1910656D0DA
:2008E0000D3E2FD0B61E50D0721E24D04BE0E02A0ADCE02A49D0A83A47D0921E49D0521FC5
:2009000045D0921F0CD03EE0A2F1E106012E3ED9B61E022E39D9F61E39D0B21E35D032E03D
:200920008479C279037A457A224313431D432ED0A22E2AD02DE0807810F0030F27D0000949
:2009400023D226E0847AC27A037B467B224313431E431AD11BE0C279067A164317D018E02E
:200960008379C279067A1A43164310D011E0C278067916430BD00CE0067946B109E0407849
:20098000400904D305E0012105E0802002E0052101E0084638600846F0BD90B50446081C2E
:2009A0001BD0722067492070087800F00F006070887AA0700020CA7A20716071A071E270F0
:2009C0008F7A87B9C97A1D290DD10E2204F10800E149E2710BF0E2FF06E0E0492046122238
:2009E0000BF0DCFF0A20E07100BFE079083090BDD0EB000800780A380ED020380CD0001F5B
:200A00000AD0143808D0483806D0001F04D01C3818BFB0F1040001D101207047002070473E
:200A20006CF90008FCEB00082DE9FC470021044634220BF093FFCA48CA4A0068103001786C
:200A400040F2844A0AFB01F15758002F0CBF402142212722A170E54D22708021617090F81A
:200A6000008095F8212095F82030EE7FAF7F95F81DC095F81CE0D017D9174FEA0029100E66
:200A800049EA0000120201431343180E0A021B02F117024311431E43F8170A02330E360290
:200AA0001A4310433743634601023E02380E43EA06020143130E16024FEAEC704FEAEE72FA
:200AC00040EA010738021843774602436B4647EA060140460AF070FA002808BF00202FD06C
:200AE0009DE80C009DF8000020719DE80300170E1E021A1C62729DE80C00000A0906084373
:200B000060719DE803001A0A000C0904A2720843A0714021E17147EA0600C0B22072EA688F
:200B2000CA4F127C0AFB0272D2F874721FB900F00F000143E171287C2073697C0120617367
:200B4000BDE8FC878AF300082DE9F04FDFF810B2ABF10C04E06807683A7800210925252A47
:200B600000F0A5809E2A40F0A080FA7BD20828BF0B257A78102A40F0E880092D40F0E68052
:200B8000BE7AFA7A3B7B7F7B42EA062243EA022357EA032A00F08780DFF8B0C2027C40F2F5
:200BA000844E0EFB02C202F51E720CCA0126B046B2EB0802174622684FF0000973EB0903DC
:200BC0001E0E167022681E0C567022681E0A967022681E1CD6701E023A0E32432668327119
:200BE0003A0C1E04324326681B0672713E0A46EA030223689A712268D771027C23687746DB
:200C000007FB02C292F8A3221A72027C236807FB02C292F8A2225A72027C236807FB02C27B
:200C200092F8A1229A72027C236807FB02C292F8A022DA720A4621680A73037C216807FB94
:200C400003C393F8A8324B73007C07FB00C000F52B73B0F8B4021E68301A00B2864201D061
:200C6000002800D51046C0F305268E73C8735F695FB19F694FB18E7B46F080068E73DF6919
:200C80001FB1887B40F04000887301F11000114610220BF063FEBAF1200F2CBF2021514692
:200CA0005846006852E00D4650E00A254EE07A7AD20828BF0B253A7A520828BF0B25BE78DC
:200CC0003B79FA787F79324313431F433DD1092D3CD1017CE04A40F2844303FB012C9CE829
:200CE000C0004FF0000901239846B6EB0806314677EB0907002F08BFB1F1FF3F24BF4FF05A
:200D0000FF314F4626683B020A0E1A43327026683B040A0C1A43727023680A0A3E063243B2
:200D20009A702268D17022689CF82B10117122689CF82A10517122689CF829109171236805
:200D40009CF828200821DA7100E00B2522688260C1602846BDE8F08F9CF3000888F30008FA
:200D600060F30008D0EB00082DE9FC4F1F4CE16808682768467836F0080640F00C81827898
:200D8000DFF8C8800026931112F03F0F02F03F09019300F0B780B9F1310F00F0B380B9F16E
:200DA000330F00F0AF80B9F1340F00F0AB80B9F13F0F18BFB9F1080F40F0A280087C40F232
:200DC000844909FB0080D0F8D80248B108F0BAF830B907F04DFE18B9E068007C09F087F944
:200DE000E068006801781A2932D001E054F30008427A4178D20828BF0B260025C379027A11
:200E00003D701A207870BD70E068007CC1F3001B42EA032209FB0080D0F888020092002862
:200E20000CBFAA464FF0100A08F088F800280CBF281C802040EA0A00F87087F804B07D7192
:200E4000BD714FF0080AFD7123E0C0465CE900084179C90828BF0B260079009017213970C2
:200E600000257D70E068007C09FB0080D0F8880200280CBFAA464FF0100A08F05FF8002813
:200E80000CBF281C802040EA0A00B8704FF0040AFD70002E40F0DD800AEB070B2946142226
:200EA00058460BF05BFD08211220019B07F80A10012B0BF10101087013D0E068007C09FBE4
:200EC0000080B0F8AA00800934BF281C04204870E068007C09FB0080B0F8AA00C0090AD265
:200EE00008E04D70E068007C09FB0080B0F8A400C00900D320250AF11400CD72C0B29DE09B
:200F00000B26A6E001781A2942D0417AC90842D2C57990F808A03146082238460BF01EFD09
:200F200008F00CF84AEA052ACDF800A000280CBF301C8020F870E06800684078C0F300107B
:200F40003871E0680068407800091FD2082207F108003146FA710BF001FDE068007C40F28B
:200F6000844101FB008090F8A2027873E068007C01FB008090F8A102B873E068007C01FBC3
:200F8000008090F8A0021025F8733AE0082538E04179C90802D30B20BDE8FC8F00793146FD
:200FA0000422009038460BF0D9FC07F0C7FF00280CBF301C8020B870E068006840780009F8
:200FC0001ED20822381D3146FA700BF0C7FCE068007C40F2844101FB008090F8A2027872B6
:200FE000E068007C01FB008090F8A102B872E068007C01FB008090F8A0020C25F87200E077
:2010000004256168B9F1000F0BD0019BE819491B4A4608F05DFA2818C0B2854208BF0B26F9
:2010200000E02846E168096809781A2904D000213970851E7D7001E0411E39704EB9009F27
:201040002168E2688742916098BF381CE1680926C8603046BDE8FC8FD4EB0008714BF0B5EA
:2010600040F28442044602FB04F0185800250E4668B177685FB120460AF05FF9874206D1F4
:2010800020460AF061F93168814208BF01252846F0BDF0B5071C0E4606D12EB1614940F284
:2010A00084407843085808B90020F0BD38460AF044F9706038460AF047F960245D4D3060C8
:2010C000314638462C61FFF7C9FF594A50B15749F801131DC31A801A196000220BF082FDD7
:2010E000012004E00020C2EBC711086040242C60F0BD2DE9F0434C4FDFF83C911446884691
:201100000646082C0AD148460068827C0121C7EBC6109140002201F0F9FA0446F5017CB192
:2011200048460168EB1B8A7C1868012101FA02F2024205D0304602F0FBFC0E20BDE8F0835D
:201140003C4F6020414638613046FFF787FF0646374846B13CB9A0F10C01691A096811F028
:20116000210F18BF0D24314A011D691A0A601EB900200E24486004E02D1A114628460BF0F5
:2011800031FD402038600EB1202038602046BDE8F083F0B5074628480068047C0D46002F48
:2011A000ADF13C0D08BF002039D01E4940F2844060430E5836B320460AF0BFF8022821D1D6
:2011C0006846002134220BF0C9FB27268DF800608DF80C7001218DF80310062006918023DE
:2011E0008DF802003A0A8DF801308DF80D2040268DF807607902089135B120460DA9FFF75E
:2012000048FF08B90E200AE06846FEF7D2FF02462DB120460DA942F21073FFF76AFF0FB023
:20122000F0BDC04634EC0008C8FEFF0401000040ECFEFF0430FEFFFF60F300082DE9FF4FF1
:20124000DFF84883D8F80C30DFF844B31A68191D501C0C7B1E7CC77940F2844A0AFB04B4D0
:20126000D279D4F8C05247EA0227002D40D00278520829D2007AC00826D2002F00F02681DF
:20128000082F21D3B7F5006F1ED8086887421BD8DFF83093A44DA34CD9F800003A462918DA
:2012A000241820460BF07AFBA178E07840EA012010F00F0F08D1083F874205D34146C968C9
:2012C00049680839814201D20B2000E10009019000F0FC80484601680AFB06BA0AF51E7A21
:2012E000BAF8540000266D18042803D2834618B90A20ECE04FF0040B4FEA4B2228463146D3
:2013000002920BF02BFB08344FEA8B10019F0090002F00F0D38000200390217A607AA37A21
:20132000E77A40EA012043EA0021237857EA01274FEAE3714FEA0122617894F807804FEAA1
:20134000136042EA00024FEA03204FEAE17343EA020341EA00014FEA03224FEA116042EA71
:201360000002A0784FEA01214FEAE07343EA020340EA01004FEA03224FEA106142EA0102D8
:20138000E1784FEAE17343EA02034FEA032223794FEA002041EA00014FEA116042EA0002DE
:2013A0004FEAE37040EA02004FEA01224FEA0020194641EA02014FEA116240EA0200627980
:2013C0004FEAE27343EA00034FEA0320A3794FEA012142EA01024FEA126140EA01004FEA3D
:2013E00002224FEAE37141EA000118464FEA012140EA02004FEAE8734FEA106241EA0201BE
:2014000043EA01094FEA0022434643EA02084FD09AE80300894508BF80450AD29AE803001B
:201420000022B0EB080071EB09018A4208BF874201D90C204BE00098B0420BD158460121CE
:20144000FFF7A7FE002842D1029A284600210BF085FA00264FF6FF7005EBC603B84288BF3D
:20146000381C4FEA18214FEA096283F8008011434FEA09425970761C4FEA18413F1A114395
:201480004FEA092299704FEA18611143039AD970494619714FEA19215971014618EB01084A
:2014A00098714FEA102149EB0209002FD971C2D101981034401E01907FF42FAF36B106F173
:2014C0003F040021A009FFF764FE00E000200090BDE8FF8F2D4A10B5D3681C7CADF13C0DEE
:2014E00002F11C0383E80300012010616846FFF79BFA20B120460DA9FFF7CBFD08B90E2007
:201500000DE06846FEF755FE02460DA94FF4FA632046FFF7EEFD00281CBF0E2810200FB0DB
:2015200010BDC046101E0100101601002DE9F04F164CE068DFF85880017C40F2844909FB54
:201540000181D1F8D872ADF5C07D3FB107F0FAFC002700B10127E068002F23D001680978E6
:2015600003291FD012291DD04D291BD01A2919D05A2917D0152915D0552913D01E2911D085
:201580001B290FD0A2290DD004E0C04654F300085CE900083B2905D0FFE71D2918BFA029F5
:2015A00040F047850068FFF725FA30B107F0C6FC002818BF152040F06287E168DFF854B3A4
:2015C00002E0C046E4ED0008D04D0868DFF840A30378DBF800C05F951A463B2A3DDCFFE73D
:2015E0003B2A00F0DD831B2A1DDC1B2A00F0AA84FFE7002A00F01487D21E00F0F386521E31
:2016000000F0E386121F00F04781921E00F04481083A00F01085D21E00F03483501F00F066
:20162000298700F01FBF1D3A00F04A84521E00F02E84521F00F0D783921E00F01887D21E1B
:2016400000F02A81921E00F02781521F00F0C080921F00F0EF8200F005BF912A1CDC912AD2
:2016600000F0E882423A00F008870B3A00F06883083A00F00783521F00F0FC862B3A00F001
:20168000F386D21E00F00881921E00F00581521F00F09E8000F0E6BE9E3A00F0E886921E49
:2016A00000F07E82521E00F0DF86521E0BD0921F00F0F280921E00F0EF80521F00F088809F
:2016C000921F40F0CF868679C179027AC57A477A41EA062142EA0122E90847EA022723D23E
:2016E000A22B4FF0000620D1417820291DD1057935F07F0525D18378C2786168206842EA28
:20170000032292B204F030FF30B95F9859460068D1F800C0006808E02168E268B8429160BF
:2017200088BF381C0746B0E30B26057935F07F0507D19C48B84238BF0B2607F2FF10450AA1
:2017400005E04FF6FF70B84238BF0B263D46002E3CD16E0250460021324660440BF0FEF8DC
:2017600002A8002134220BF0F9F8272080238DF808008DF8093077B1E16808680278A22A00
:2017800014BF5F225D228DF814508DF80A202A0A8DF80C200BE0E1685B2208688DF80A2029
:2017A00003780022A22B08BF01228DF81020407809688DF80B00C8788DF80D0088780A96F5
:2017C0008DF80E0002A8FEF7F4FC06463046E5E12F3B4FF0000703D0603B23D0203B46D1DC
:2017E000384684F8210084F82000E06800688178E177C178A17701796177417921770178C3
:20180000AF2906D0417AC90828BF0B27C379007A29E0C17AC90828BF0B27C279037A8179DF
:20182000407A1CE0C17BC90828BF0B2786780EB9C67806B10C27007984F82100E068006819
:20184000417984F820108179E177C179A177017A6177417A2177C27A037B817A407B42EA3C
:20186000012243EA022340EA0320206100E00127381C40F09381FEF743FC002840F08E81EA
:201880002169002900F08A8129A8FFF7CDF8002800F0818129A87BE1083B4FF0000767D007
:2018A0009B1E65D01E3B0AD09B1E08D05E3B33D09B1E31D01E3B18BFB3F1020374D1417849
:2018C000090904D301212046A161C06800688078E077E0680068C178A177017961774179A9
:2018E00021770178A82908D0AA2906D0417AC90828BF0B27C279007A37E0C17AC90828BF21
:201900000B278379027AC179407A2AE060F3000810160100E4ED0008C17BC90828BF0B279E
:201920004178090904D301212046A161C068006886780EB9C67806B10C27007984F82100E8
:20194000E0680068417984F820108179E177C179A177017A6177417A2177837A027BC17A72
:20196000407B41EA032142EA012240EA022012E04179C90828BF0B27407800F01F00A0774E
:20198000E068006881786177C17821770679266116B94FF4807020613FB9266906B90B27F4
:2019A00003E0C04600FEFF010127381C40F0F680FEF7A6FB002840F0F180E068007C27696B
:2019C00009FB0081D1F8A4623146FEF7B3FEB842C0F0E380DFF85CA3DAF8000004F11C05CB
:2019E00048B9D6480068806806FB07F188423CBFB0FBF6F0206152A8002134220AF0AEFF90
:201A0000E76838680078FEF734FC8023064627208DF8480168798DF84931C117020E030269
:201A2000287909021143C2170A43184311020302020EE8781143C2170A43184311020302B0
:201A4000020EA8781143C2170A4311026A781843030E19430302D01708431A430002110E6A
:201A6000084329781302CA170243387C19436B468DE8060009F0A0FA002800F08C809DF8B7
:201A800000008DF84C019DE80300000A090608438DF84D019DE80300000C090408438DF844
:201AA0004E019DE80300050E080205439DE80300081C8DF851019DE803004027E3688DF8A8
:201AC0004F7110338DF85051080A8DF8520100208DF85701197809FB018101F51D714F6AA2
:201AE0004FF0010C1FB1DAF80020012A27D0A7692EB90A68002A0CBFC821252108E00A68CF
:201B0000002A08BFCA2103D0002F14BF3D2135218DF84A118DF84B0121698DF853018DF8C7
:201B2000541142B9ECB29DF84F218DF8550104F00F0414431BE00A0A8DF8552119E0002E38
:201B400014BF6122602221698DF84A21A7698DF84B110A0A8DF853219A788DF85501D20076
:201B60008DF854212FB19DF84F4144F080048DF84F418DF856015896CDF864C156901A786D
:201B800009FB0282D2F8A422579052A851435A91FEF70FFB02E00E2000E00B20074647E03F
:201BA0008779C179027AC37A457A867841EA072142EA0122D90845EA022534BF00270B2750
:201BC000C17802794378407919430A43104318BF0B27022E2BD8102D29D34FBB20680026B4
:201BE0000670206846702068867020680821C1702068374646602168062201EBC7010E7241
:201C000001F10A004F7231460AF0A8FE7F1CF2D02068E16888602068C01C01780831A942D9
:201C20009CBF05780835E0680927C56000E00B27384684E1352B07D0912B03D1C07BC00833
:201C400005D379E00A207AE1407AC00874D20FA8002134220AF082FE272180208DF83C10A5
:201C6000E7688DF83D00387C09FB0080D0F8740200280CBFE720EA208DF83E000FA8FEF76A
:201C800098FA5CE15546152B654405D0C179077A467A47EA012701E00779467929463A4639
:201CA00007F01AFB032840F04A81F00880F0D883E06801684878420880F0D28340093BD358
:201CC000002F4FF0000000F03A810978152905D0AB79E979082241EA032101E0E9780422F0
:201CE0007F1A8918BF1A0D4440F329814FF027094FF08008EF2629786C7801F03F01082971
:201D000014D145A8002134220AF028FE8DF814918DF815818DF81661287B800934BFAA2030
:201D200055208DF8170145A8FEF743FA3F1BBF1EE1DC04E16CF900080B2000E1D0F3000855
:201D40004778C279057A002F45EA022540F08883C778002F40F084830779002F40F08083C3
:201D60004779002F40F07C838779002F40F07883427AD20880F07483837866680A7C206817
:201D8000314603F03F0304F0D5FD002800F068832168E268A842916000D80546284638E374
:201DA0004A7C0A2A40F05C834F68002F08BF002505D009F0EEFA05462046C168086882784E
:201DC0004D2A0BD104F0B0F8002840F03281E168086849682A4609F068FD50E349682A467D
:201DE00004F03CFA4BE3427AD20880F03983C279077A57EA022761D02068002505702068C8
:201E000045702068857020681022C01C0270097C002609FB018303F51E7106C9002E11467A
:201E200006BF0029D3F878124FF0FF310A0E427022680E0C567122680B0A93712068C1715E
:201E400020680226067220684572E0682168007C09FB008090F8A1028872E0682168007CD8
:201E600009FB008090F8A002C8722168082201F10C00091D0AF092FD20680574E168206848
:201E8000142F8860A8BF142087DA384685E74279D20880F0E582007900F0010540080CD32F
:201EA000087C09FB0080D0F8D802002800F0C18007F048F8002840F0BC80A5600020DEE26F
:201EC0004179C90880F0CC82C378027955466544294642EA032207F0B3F9014603292FD1E9
:201EE000E0680268501CC778D278174340F0B882007800F00F00042822D100200021FFF7AA
:201F0000E9FA011C1CD1E068007C09FB008000F51E7003C801220023801A9941FFF7DAFABA
:201F2000011C0DD1E068007C09FB008000F51E7003C8CA07400849081043FFF7CBFA014651
:201F4000084640E24279D20880F08A820079820855D2087C09FB0080D0F8D802002868D0CC
:201F600006F0F0FF002864D138A8002134220AF0F5FC27218022E0688DF8E01001688DF848
:201F8000E1200979490822D2017C09FB0181D1F87472002F0CBFE721EA218DF8E210007CC7
:201FA00036A9FFF776F8002843D038A8FEF701F90246E068007C36A947F23053FFF799F8A6
:201FC000002840F00082E0208DF8E20013E0002084F8210084F82000E077A0770F276077F9
:201FE0000126277738A82661FEF71EFD002808BF0E2000F0E88138A8FEF7DBF8E3E140087B
:202000000CD2FEF733F938B907F0B3FA00287FF455AF06F051FF51E7142030E2087C09FB41
:202020000080D0F8D80220B106F08CFF00283FF445AF0E2023E24279C37805798778D2085D
:2020400045EA032B80F00C824078DFF894A340085AD2002F40F09B812546286800214022F2
:202060000AF07CFC20688021417020680627877020680227C77020683B260671206808226E
:20208000564606F1180108300AF088FC2068102206F1200110300AF081FC2068331D042257
:2020A000194620300AF07AFC2068382180F8241020680322D9A125300AF070FC206880F892
:2020C00028702068572180F829102068502680F82A602068042380F83A302068602280F8A4
:2020E0003B20206880F83C302068C02780F83D702068172680F83E60216830232A4681F8E5
:202100003F30D068402654E120686668B02F02460EDCB02F6DD0002F00F04081803F00F06B
:202120001D81FF1E00F03581B81F00F0C0802EE1B13F3BD07F1E15D00E3F09D0BF1E40F078
:2021400026810A7C314604F087FA061C08D02DE10B7C31461A4604F0EFFA061C40F026812A
:202160000D2030E12068002108220AF0F7FB2068B221417020680427C01C0770E168097C82
:2021800009FB018101F530710F686FB1802282704F684FB1827842F0020282708F681FB157
:2021A000817841F0040181700826FFE02068002140220AF0D3FB2068002101702068B122AA
:2021C00042702068817020683C27C770E1680A7C09FB0282D2F8D872002F66D0B2F8CE2248
:2021E0008280097C09FB0181B1F85011871D39805BE02068002140220AF0B0FB2068B02127
:20220000417020683C27C77020680126C671E068007C09FB0081D1F8A012FEF78BFA22683D
:202220005FFAB0F1117223685FFAA0F55D7226685FFA90F7B7722668F07226683173216897
:202240004D7321688F732168C873E068007C09FB0080B0F8CC22900A18BF4FF48062E568AE
:202260009005A0EB8210030A00F47F46020603F47F4342EA0622134343EA10634B61287C8B
:2022800009FB0080D0F8C0721831002F0CBF00237F231A0A180603F47F4502F47F4240EADA
:2022A0000520024342EA13620A6040267EE0206800214FF40F720AF051FB20680021017018
:2022C0002068892747702268564643F6020306F1080102F10800538006220AF05FFB2068D9
:2022E000082206F1100110300AF058FB20680422514620300AF052FB2068342180F82410BA
:20230000E168097C09FB0182D2F8D8721FB392F80112C90924BF402180F82510263002F2D8
:2023200002210C220AF03AFBE068007C09FB0080D0F8540200280CBFEC20A120216881F8F5
:202340003800E1682068097C4FF400723C3009FB01810AF023FB4FF40F7627E000231370BB
:202360008027477083701422C270097C09FB0181D1F8D87227B9001D20210AF0EFFA04E081
:20238000001D01F504710AF009FB18260EE00B2019E0314604F0D0FA064607E00D2E88BF7D
:2023A0000D262068374932460AF0F8FA5F9825460068296808305E45016098BFB346E2684D
:2023C00009205946D160014608E042790B21D20804D2407810F0170F08BF002108464EE0FC
:2023E000C4CF000841790579C90839D2417831F0010735D18778002F32D1C77887BB20680C
:2024000001F00101FEF7C9FA2168E268A842916000D80546E1680920CD6030E052445800A3
:202420004079C0081CD2087C09FB008101F53871086888B91CA8002134220AF08FFA2720CF
:202440008DF8700080278DF87170E5268DF872601CA8FDF7AEFE12E000220F200A600EE019
:202460000B200CE00A200AE0FEF772F807E0FEF76BFB04E0FEF778FC01E0FEF7DFFE60B080
:20248000BDE8F08F78F300082DE9F0430546287CADF1380D002818BF012040F02581974CB1
:2024A0000021182204F10C000AF058FAE560287C08F04AFF296860610878E02804DBE82881
:2024C00002DC687C06286FD0DFF83492287C40F2844808FB0090D0F85402002861D0E0683C
:2024E000017C08FB0191D1F8D872002F57D000680178A12902D1407A00284DD185294BD01A
:2025000001A8002134220AF029FAA027FF268DF8067080208DF809607A4D8DF80A6027210B
:202520008DF805002B688DF8041003F108000168202912D30122E1688DF80720097C08FBB2
:202540000191D1F8707247B10079802805D19DF8070040F004008DF80700E26811680878B0
:20256000FDF787FE07900878FDF790FE074608979868099047B9B0F5805F02D8187B80282B
:2025800002D14FF480500990527C0AA80AF006FA01A8FDF70EFE70E0FDF7DAFF6DE00E24FD
:2025A0008DE0FEF7C3FF68E0E068036822681878E03854D0C01E4CD0401E44D0401E3DD0CF
:2025C000401E35D0401E17D0401E2FD15F78002F2CD19F7857BBDF7847BB1F7937BB587915
:2025E000802823D11046802107F0A7F9F0B12068E168886080203DE0002000905E78DD78BF
:20260000197998785B7940EA062045EA0025032041EA052107F0B4FB30B92068E1688860E4
:20262000E1680868407926E00D2026E00A2024E003F068FA0AF0DCFA00201EE02E4801788F
:202640000120117013E00A201070216801274F700CE06020107020689221417006E00AF013
:202660007DFA0146206802220AF098F902202168E2689160E168C8600920002804462DD076
:2026800009380C282FD8DFE800F0292624201D1A17120E2E2E0A07C02721002205E0532116
:2026A000022205201DE074210822072019E0122404203E21032214E00620282107E00220AB
:2026C0003A2104E00420442101E005202121002207E0242100E020210022E2E70020014629
:2026E0000246FDF728FD20460EB0BDE8F0830649002008607047C04640F9000854F3000819
:202700005CE90008D0F300085CF300082DE9F041002B17460E4605460EDD1C464FF0000848
:2027200028683040874209D04FF47A7009F0D8FD0AF003FA641EF3D14FF002084046BDE84B
:20274000F0810B461146AD4A10B5C2EBC01004681A1C084618BF147008B1210A017010BDBA
:2027600098B504460DF101016A46FFF7EAFFA44A40F284416143501800F534704768002FCB
:2027800041D19DF801305B0842D39DF8007037F07F0734D19DF80030DB0923D29DF80000FF
:2027A00080091CD29DF80000400915D29DF8000000090DD29DF80000800806D29DF80000D6
:2027C000C00825D300210A461BE002203A211CE006205A21012219E00520212115E0062015
:2027E000282112E0007801EB80015218D2F80803002807BF032011210720272105E047217B
:2028000003220B2002E0042044210022FDF793FC98BD10B5794C04F108010022C1EBC014D9
:20282000012120460AF0DEF94FF4004100224FF4FA632046FFF76AFF10BD2DE9F84F0F46B5
:202840006F499046034640F2844202FB03F0081800F527718E6B002E18BF062040F0A18097
:202860000978414538BF0120C0F09B8063491839C1EBC31151F8044C09684FF0010B0BFA97
:2028800008F221430A4240F08B80CA4E31687A695C024FEA082504EBC32400EB8803611836
:2028A000681803F53A71009100F581300A60394614220AF073F8A146B878BF4CAA46A02860
:2028C0000BD131682046494440380AEB010207F12401801810220AF061F83D6AD6F800E091
:2028E00085B309EB0E005044201847B3F9693368002429B1BE69002E0CBFB04AB04A01E0E8
:20290000B04AD218002914BF4FF4F8114FF48051A94214D3D7F818C02E462146B6F5783FC1
:2029200034BF331C4FF4783302604160641C5D1E8160F61AC56000F11000EFD106E058460E
:20294000BDE8F88FD7F818C000210C4609EB0E024FEA48104FF480350526831803F5803333
:2029600080182E501868BCF1000F40EA044408461C6003D01C6844F040041C60009CC4F826
:2029800020C0BC78A02C03D11C6844F020041C605244596002F581329A60D960BDE8F88FD3
:2029A0000720BDE8F88FCB4BF0B517460A46014603F11C04C801041B246864081BD33FB93B
:2029C000CD4E40F2844501244D43944072550DE0CA4D012440F28446C71A944006FB015560
:2029E0003C60D5F83C132143C5F83C131B1FC11A00200C60F0BD0120F0BDC046E0FEFF04AC
:202A00005CE9000890B50F4604463422ADF1340D0021684609F0A2FFEF22802027238DF867
:202A2000022003218DF801008DF80030B44A8DF80310002067B940F28441121D6143515ACA
:202A40008A0803D2490828BF0B201CE00C201AE040F2844101FB04214F885FB90F8897B1A4
:202A60000220012200E0401E02FA00F10F42FAD0203008E00620012200E0401E02FA00F11F
:202A80000F42FAD040308DF80C00694600222046FFF7D3FEC0B9002120460A46FFF783FF54
:202AA00090B98C48E401012100224FF4FA63001F201AFFF72BFE214630B9C24A891A096848
:202AC00011F0210F18BF01200DB090BD30B50C4605463422ADF1340D0021684609F03EFF07
:202AE000272080228DF80000EF218DF80120002C8DF802102C4614BF1020902000226946F9
:202B00008DF8030002208DF80C002846FFF795FEB8B9002128460A46FFF745FF88B9A94DC2
:202B2000E401012100224FF4FA63A5F11800201AFFF7ECFD28B9641B216811F0210F18BF14
:202B400001200DB030BDF0B59E4D07464FF0FF336622FC01A5F11000211A0B6005F108008D
:202B60000A64201A01210A460AF03CF8964840F2844101FB0706F06FA8B1306F98B17068B7
:202B800038B938460021FFF73DFF38460121FFF739FF306818B138460121FFF797FF1035D3
:202BA0000120641B20600020F067C6F8C000F0BD00207047E4ED000880020100000010C050
:202BC000000014C010160100F0B50C46002A014614BFA578E57BB54B40F2844202FB01301C
:202BE00000F53470067802FB01F707EB86029B18D3F8E8724FB147683FB96A0805D2012066
:202C000000211D22FDF797FA0DE0406805F00107074305D1002001460246FDF78CFAF0BD47
:202C20000846FFF79DFD6949E0784870607B8870207B0B78C870580834BF0020207A087145
:202C400020794871580834BF0020607A88716079C871580834BF0020A07A0872A079F02793
:202C600048725B48E27907708A72CD72E1780571C170E1794171217B8171677B002F0CBF74
:202C800000214021257A627AA77A5219BF180CBF0022202241EAC3110A430272A179417218
:202CA000617981722179C172F0BD10B5D64C0A01FF2142F00102C4EBC014204609F092FF13
:202CC000052009F0DFFB0F210022204609F08AFF10BDC046CCFEFF043E4A40F28443102170
:202CE00003FB002252F8040F002818BF012002D1491EF7D1002070472CEC000848E9000805
:202D0000B8EB00082DE9F84F0646C048F401211A0F680022A4EB000B4021584609F062FF9B
:202D2000B949002507F04009884608F10400A4EB010A201A009050460F21012209F052FFCA
:202D4000052009F09FFB50460F21002209F04AFF00980F2103223223FFF7D8FCDFF878C076
:202D6000071C14D028460C2800F10105E3D3604640F28441903801FB0600D0F8845035B114
:202D80000021C0F884100122C0F888200160414640F284424FF08060B9F1000F4FF0010546
:202DA000A1F1040102FB06C6A4EB0104206004D0402158460A4609F015FF35603846BDE8B7
:202DC000F88FC046E0FEFF04C4EB00089EF3000888F300089CED000840EC00082DE9F04F98
:202DE000324C40F2844AADF1400D0AFB00FA0F905444D4F8D80238B184480F990022C0EB64
:202E0000C110022109F0EEFE68460021342209F0A5FD272080218DF80000D4F854728DF895
:202E20000110002F0CBFEC20A1204FF40072DFF83C838DF80200CE4F0D923968089208EBFE
:202E40000100002109F08AFD0F9869460022FFF7F4FC0E90002840F0B9810F9800210A462A
:202E6000FFF7A1FD00280E9040F0B0810F98664DC6010121002241F65833A5F10C00301A84
:202E8000FFF744FC0346002B0E93304640F09E81E049411A096811F0210F1CBF01210E9160
:202EA0000E9E3968002E40F0918101E05CE900081C350222401B02600D9A464671182046D3
:202EC00009F06CFD002504F52378A4F86052A946C4F870523F68C4F894520822A4F85E525D
:202EE000404684F86392294684F8629209F036FDC346F619A4F8B4520A27C4F8BC52DFF844
:202F00006CC3C4F8B85206F11402A4F8CC52308884F8A8920CEB0A01C0F3C010C4F85802EC
:202F200032F8020B03067F1E4FEA202040EA134021F8020BF4D10CF1140006F12E02042770
:202F4000504432F8021B0B067F1E4FEA212141EA134120F8021BF4D1604606F136021427E4
:202F60001C30504432F8021B0B067F1E4FEA212141EA134120F8021BF4D1B06F002104F54F
:202F80001E7282E80300D4F8540240B1B6F87C7028466FF30E0707B10120C4F87002B6F8ED
:202FA0007E00A4F85C02B6F86A00800824BFB6F88000A4F86002B6F88A10B6F89600C1F3AA
:202FC0008032C4F8C42200F01F0084F89D02C1F34011C4F8C8120728A8BF0720B6F89810C5
:202FE000012784F89C02C1F30023C1F34022C4F898320320C4F864220A4607FA00F1114222
:2030000006D1401EF9D105E0D4FEFF04ECFEFF0484F86302B6F89C10B6F89E00B6F8A03005
:203020004FF6FF78C1F38001C0F38010C4F868129845C4F86C021CBF002B84F86232B6F85B
:20304000A600B6F8A810C0F38022B6F86A30C4F87422C1F38011C4F88812D80824BFB6F869
:20306000B000A4F85E02D4F8740280B16FF0704004F51E71C31706C99A4208BF814206D1B4
:2030800004F51E7006F1C801082209F087FCB6F8A800400A10D306F1D801C4F89472584690
:2030A000082209F07BFCB6F8D8006FF30B00B0F5A04F18BFC4F89452DFF8A8C20F98C4F8D2
:2030C000AC7240F2844E0EFB00C404F51E7090E8000CB6F8D400C10B4CD3C113C903B1F543
:2030E000004F47D0400B0CD3B6F8EC10B6F8EA006FF0004240EA0140411E8A4288BF45003B
:203100000D950D98C4F8A002B6F8D400810B3CBFD4F8A002C4F8B0023CD300F00F000F9F69
:2031200084F8A8020EFB07C494F8A8124846814214D8D4F8A002D4F8AC22B6F8A211424324
:20314000C4F8B022CA0B25D3CA13D203B2F5004F1CBFC1F30D01A4F8B4121BE0D4F8AC22D8
:20316000401C5200C4F8AC22E1E7C04610160100E4ED0008D4F85472002F0CBF0D984FF4D5
:203180000060C4F8A0020F9FC4F8B0020EFB07C4D4F8A002C4F8A40204F5207080E8000CB4
:2031A000B4F8B402A4F8B602B6F8520110F00100C4F8C00205D0B4F8D20000B94046A4F8AB
:2031C000CC02B6F8B201A4F8CE0205E00020C4F8D8020127C4F8DC72D4F8D80238B1C048F0
:2031E0000F99C0EBC11002210A4609F0FBFC0E9810B0BDE8F08FB949C1EBC0100068C0F325
:2032000003107047B748012100224FF47A730160FFF77CBAE0FEFF04F0B50F46514940F23D
:2032200084420446002502FB0410C0F8D8520126C0F8DC62204607F049FF204605F05EFEED
:20324000A748AA49A84AA300C0EBC410C9180560202414600C6814B12FB1374601E0A54816
:20326000C550A348C7500E60F0BDC0466CEB00083C4A40F2844180B5484310270021831887
:2032800003F244437F1E43F8041BFBD18018C0F83C14C0F8401480BD2DE9F04F05463148ED
:2032A00040F2844780466F4308EB070404F52674C0192668D0F8D8A28B46002E04BFEE01AE
:2032C0004FF0000904D08D48EE01301AD0F800902846FFF79EFA82480C38361A306800F08A
:2032E000880049EA00005BEA00000ED02846FFF709FD18B10020206401266664BAF1000F6E
:2033000003D028460121FFF787FF2846FFF71BFC79480068032823D1BAF1000F20D02846F3
:20332000FFF7DAFCE0B9D4F89C00C8B1D4F8A41107EB81014144C1F83C03D4F8A40101263D
:2033400007EB800708EB0700C0F84464D4F8A401401C1028C4F8A40124BF0020C4F8A401D0
:20336000BDE8F08F5CE900082DE9F04FDFF884A1CB4C5F49DFF874B100273846524627600C
:203380005B4643F8047B42F8047B401C41F8047BF7D05B4808F023FDDFF8688101254FF05E
:2033A0007B464FF48031F56040460A46C038376009F018FC102140460A4609F013FC082159
:2033C00040460A4609F00EFC07210222404609F009FCFFF717FF08BB02207060DFF8FC8030
:2033E000D6F80C903E4605FA06F019EA000F13D0304600F08DF860B1C8EBC610006800F018
:203400000F00032808D0B0004BF800504AF8007002E02068401C2060761CE4D02168384612
:2034200001B92846BDE8F08F2DE9F04FDFF8DCA040F28442064602FB06A505F53675286877
:203440008B4670B3DFF89880F4014FF00009A4EB0807C7F8009009F05DFA3046FFF708FF9C
:2034600030465946FFF718FF2D68F868002D0CBF4A46254A414610F0880FA4EB010422600A
:203480000AD01A4850F8260030B98548006808B1CAF8D892FFF768FF062029210322FCF79A
:2034A0004AFEBDE8F08F2DE9F0417D4C924F8046402620683E6170B10025B8F1020F18BF85
:2034C000B8F1030F04D128460021FFF7ADFF20686D1C8542F1D33E60BDE8F081D8FEFF0402
:2034E000ECFEFF04040000FB40FEFFFF3CE9000844E9000840E9000844F90008CCFEFF04FF
:20350000A7340008780100FB5F0000795CE9000863492DE9F04F40F284424FF00009ADF150
:20352000180D1431039002FB0018C8F8D8920446C8F8DC9207F0CAFD204607F005FF059023
:20354000204605F0DBFC6D4A2046C401A51A6A4A20211161C5F80090402145F8041C012104
:2035600081400291C44A5160C14969600221FFF79CFB4CF21101DFF8FCA26868CDF81090BB
:2035800001421FD0FFE70398FFF743F988B9B74810214A46251A284609F024FB28464FF4CF
:2035A00080414A464FF4FA630090FFF7AFF8071C0CD00398FFF7A6FB0746AC48201A0090B1
:2035C00027B111E0A9484F46201A009050461038211A48680E68064303D00398FFF792FB59
:2035E00007460FB9C8F8D492BC4E039930684D024FF4807205EBC1254946281800F5803084
:2036000009F0ACF9DFF8D0B2306849464FF480722818584409F0A2F901953168019B504686
:203620002430201A6A1802F5803202605D465918C0F8049069188160009810210A4609F09B
:20364000D1FA17B10398FFF75DFBC7480F210322FA23201A8346FFF759F80746DFF880A2DD
:203660000498401C0228049002D8002FEAD100E0C7B9504689214A4647F23053201AFFF7B4
:2036800045F8071C40F0BE807A484FF6FF7140F201120A23201AFFF739F8074605E0C046DA
:2036A00048E900080120C8F8DC02002F40F0AA800398FFF748FA6F483168201A0268019829
:2036C000403501275FFA92F65FFAA2F3012E084405444FEA126102D0D0B2012806D153EA7D
:2036E00001060DD0EB2908BF142B01D05FB110E03846C8F8540205E030FEFFFFECFEFF0469
:20370000C8F854924F4608F500702946102209F045F9002F76D1D8F8540228B100984FF0DD
:2037200080710A4609F05EFA0398FFF757FB071C05D10398414607F082FC00B901279C48BF
:203740004FF470614FF44072201A09F04BFA002F58D198F8630202283ADB0398FFF74BFD83
:20376000022835D2039D2846FFF753F82846FFF7C9FA2846FFF73FFD02281BD2FFF742FDB6
:2037800002253D4939480D603949201A0160FA2008F0A6FD03982946FFF787FA0098102172
:2037A0000A4609F01FFA58460F2103223223FEF7ADFF074637BB504689214A4647F23053F3
:2037C000201AFEF7A3FF071C1CD10398FFF7BBF903984946FFF716F9071C13D103980121D0
:2037E000FFF710F9071C0DD10398C8F86892414607F032FD002808BF012703D0039807F04B
:20380000A3FD05901B491C4B029A4FF0FF306FF040060C39651A2860002F45F8206C4FF076
:20382000010A5A6040D1039EC8F8E0A2304605F047FBBD48BD490861304607F085FD059921
:2038400081421BD155F8080C00F00F00032815D155F8200CC00911D2C8F8D8A2C248B349E3
:2038600045F81C0C60260E601AE0C046E8FEFF0402000400DCFEFF04040000FB3A48201A68
:20388000006800F00F00032802D0304607F04DFD30464946FFF7C0FCA44940205746086004
:2038A0004FF40010086067B1BC49039851F82000C8F8DCA208B94FF04009B9484946241AD7
:2038C0002160D8F8380310B1014603988847384606B0BDE8F08FC04600010100E4ED0008B1
:2038E000E0FEFF042DE9F04F05F0C2F800284DD1AA48DFF80093002635464FF0010B2F46E0
:20390000A0F10408BA4658F8040F00283AD0A54CA41923682BB13846FFF7DEF9002831D1EB
:2039200025603846FFF7D8F950BBBF4880190368E3B10D49C1EBC711096801F00F0103299B
:203940000DD1C8F80050056038462560FFF7E0FDC0B9D9F80000401CC9F8000012E0384667
:2039600007F0E3FC0EE0C046D8FEFF04C0F800B03846FEF74EFF08F0CDFFC9F800A001E076
:20398000C4F800B07F1C06F10406BCD0BDE8F08F10B5A64C4FF480710A46204609F022F9BA
:2039A0004FF480710022204609F01CF910BDC046D4FEFF04F0B509F0C0F89D4D686DC0F3CD
:2039C0000327002F00F09B8006F028F8894C002863D1286800F00F0004285BD02169022F9B
:2039E00056D9944A1068401A032898BFA06802D9116800202161401C08284AD30027106820
:203A0000A760401A032845D8D4F8EC0204F1140640B9286930B10120C6F8DC023846FEF799
:203A2000F8FE37E0D6F8D8523846FEF7F2FE3846FFF768F910B1642008F024FD1DB138469F
:203A40000121FFF7E9FB3846FFF77DF8E068401CE060FDB13846FFF73FF9D8B9D6F83403AD
:203A6000C0B1D6F83C1406EB8101C1F83C03D6F83C14012506EB8101C1F84454D6F83C0436
:203A8000401C1028C6F83C0428BFC6F83C7401E00020A060FFF77CFFF0BD2868D4F8EC7266
:203AA00004F1140500F00F00032802D0002007F03CFC00200121FFF7AFFBFFF769FF002647
:203AC000A660E7B13046FFF707F9C0B9D5F83403A8B1D5F83C1405EB8101C1F83C03D5F8B2
:203AE0003C14012705EB8101C1F84474D5F83C04401C1028C5F83C0428BFC5F83C64F0BDDC
:203B00004D4B40F2844250431950704703464A4880B500270C380360416082607F1C00F274
:203B20008440F8D080BDC0466000200030FEFFFF70B504460846B4B9404D19496022002649
:203B40002A61C1EBC4110E6038B108F0E3FE2046FEF75FFE2046FFF7D5F820463146FFF775
:203B60005BFB4020286070BD5F00007990B598B9314A324C324B40F284414143603A575832
:203B8000236127B90121FFF747FB402000E0602020604FF40010206090BDC0463CE90008D4
:203BA000ECFEFF0444E9000890B54FF07B404FF08061104CC0F83011D4F8EC72D0F8280114
:203BC000143400F00F00032802D0002007F0ADFB00203946FFF720FB2FB3C94800680328AC
:203BE00021D10020FFF778F8E8B9D4F83403D0B102E0C04648E90008D4F83C1404EB81017A
:203C0000C1F83C03D4F83C14012704EB8101C1F84474D4F83C04401C1028C4F83C0424BF07
:203C20000020C4F83C0490BD40E90008780100FB280100FB30FCFFFF94EC000830FEFFFF74
:203C4000600020002DE9F84FAE4E30684008C0F05481DFF8C092D6F808010127CB46D6F81F
:203C60000C51C6F808010540E80980F03E81A648284240F02881A8480346D0F800C01C6845
:203C8000280942D31846DBF85014DFF880E203684FF0000888000EF1180E00EBC10000EB1A
:203CA0000B020BF1140182F8908340180EEB0302FD2380F87D33127880F87E23D6F82C21FD
:203CC000DBF83C335A40C0F88023DBF84033DBF83C039043CBF83C03BBB1D1F83C24D1F822
:203CE0002C0301EB8202C2F83C03D1F83C0401EB8000C0F84474D1F83C04401C1028C1F8F1
:203D00003C0424BF4046C1F83C04E80834D3DBF850148800002300EBC10000EB0B027B49C0
:203D200082F890333E3961440B780BF11402801803F01F0C0B6980F87DC34946C0F88433B5
:203D4000D1F84433BBB1D2F83C34D2F8300302EB8303C3F83C03D2F83C0402EB8000C0F8E4
:203D60004474D2F83C04401C1028C2F83C0424BF0020C2F83C044F60680846D363480146CC
:203D8000D9F85084005D3A46891E0919C0F34010C9F8E8020020FEF717FF4FEA880000211D
:203DA00000EBC800484400F56470017099F8E412564B4170195D584C554B8170216899F8EC
:203DC000E42201EB42115C5809F1140184600CB158464760D1F82C43ACB1D1F83C0401EB6B
:203DE0008000C0F83C43D1F83C0401EB8000C0F84474D1F83C04401C1028C1F83C0424BFAE
:203E00000020C1F83C0444480468A80852D33F4859465A464F60223800EB0408D2F85014C8
:203E200098F80F30584600F11404880033F07F0300EBC100204400F55F7A3BD194F8D01287
:203E4000D6F830010142FBD1002041460246FEF7BBFE00208AF8000094F8D0022E4B8AF8BC
:203E6000010098F802002A4A8AF80200186894F8D01200EB41101058CAF80800D4F82C0360
:203E8000A8B1D4F83C1404EB8101C1F83C03D4F83C0404EB8000C0F84474D4F83C04401CF1
:203EA0001028C4F83C0424BF0020C4F83C040220C6F80801680E1AD30020FEF7AAFC0020A8
:203EC000FEF741FE13E0280F0AD2E80F08D300200DF101016A46FEF734FC0020FEF740FC90
:203EE00000200146FFF7D8F901E0FFF75DFED6F8080100287FF4B3AE3760BDE8F88FC046C6
:203F000044F90008080000FB10000078420101000400010048E90008E4ED00082DE9D0434D
:203F2000144681460F1C08BF00204DD0C148DFF890820068032818BF002309D14046A03082
:203F400050F824004088030203F47F4343EA2023832049463A4601F047FB061C2DD0042EC9
:203F600031D1404600EB84025832116805292AD000F51A710B6800EB8303C3F8E891D0F8BD
:203F8000683200EB8303C3F80872D0F8683200EB8303C3F84842D0F86842012700EB8404BC
:203FA000C4F82872D0F8683240695B1C984298BF00230B600520106005E0404609210461DB
:203FC00000EB840081653046BDE8D083F0B50746BF480168BD4C7A484FF0000CBE0005469D
:203FE00001EB4711AA19641884F801C08119D1F8A010926D891C0B8858303618092A6380CB
:204000000DD0072A0BD00B2A09D00A2A05D0082A03D00C2A18BF012034D1072200E0062237
:204020002270AB683BBB2278062A0BD1D5F86C2205EB8202D2F8482250F822000B2801D1CD
:20404000974218D17B480068032818BF634605D10888030203F47F4343EA2023822021462B
:20406000042201F0C1FA00B9EF6108B90121A960042801D0F0BD04202178062914BF0C21E3
:204080000B213160F0BD6B4BF0B51B6814460D460646032B18BF002308D18B4850F824009F
:2040A0004088030203F47F4343EA2023032031462A4601F099FA074641487FB1042F12D160
:2040C00000EB840158310A68062A0CD04663856304640122C26306260E6004E0C4600A215B
:2040E00000EB840081653846F0BDF0B5514A7A4D7A4C12680F460646022A02D1FFF766FFFE
:20410000B0B9744850F8260008280BD00A2809D0072818BF09283DD1284639463246FFF756
:20412000FDFEF0BD204639463246FFF7ACFFF0BD04282FD1224A02EB8600806D0C2824D00C
:204140000B2827D102F51A70016802EB8101C1F8E851D2F8681202EB8101C1F80872D2F839
:20416000681202EB8101C1F84862D2F86832012402EB8303C3F82842D2F868125269491C6E
:204180008A4298BF00210160F0BD5463976316640120D063F0BD2DE9F04F094E4C4A4B4CC8
:2041A00082460F464FEA8A0906EB09011068CB6F002500EB4A10241823B927B908E0C04619
:2041C000F4F30008022706EB09000121C0F8C41020462946222208F0C1FB032109EB060034
:2041E000217000F1A008A771D8F800004088AB466080022FA4F80EB00BD104F11000294639
:20420000FCF7CBFB0546A8B22906001240EA1140E081D6F89C0106EB8000D0F8580106F52B
:20422000AC7758BB034800681035032818BF5B460AD101E040F90008D8F800004088030213
:2042400003F47F4343EA2023822021462A4601F0CBF908B9C6F81CA070B9FFE706EB0900C3
:2042600010218165706950452CD9706A401C00F03F007062BDE8F08F042823D106EB09003F
:204280005830026801210D2A13D00D220260D6F8980147F82010D6F8980107EB8000C0F8F8
:2042A00020A0386C401C0828A8BF58463864BDE8F08F786C401E48BF07207864D6F89C0192
:2042C00047F82010BDE8F08F94F40008F0140100E4ED00084CF40008000010C0000014C0F1
:2042E0002DE9F04FCF4C064631192C31B54B0A78B700381900F1A00984F85420D9F8000076
:20430000A2191030606492F82C5040F284426A439D588A46002D06BF002184F8561084F8FD
:2043200056600078E02803DBE828D8BF062000DD102084F855003D194FF0000B04F14400E5
:20434000C435C5F800B0FEF79FF88046B8F1080F00F08280B8F1090F31D0B8F1000F0AD09F
:20436000E019806D092803D00A2804D1032000E0832001F040F8012028606269B8F1120F3F
:204380000ED0E419A06D0A2800F08580B8F1000F14BF022159463046FFF7FDFEBDE8F08F36
:2043A00004F58470016804EB8101C1F8E860D4F80811491C8A4298BF59468B4669E0CC48FB
:2043C0004FF001080068C5F80080022818BF584602D13046FFF7FAFD0028216DC54BAB4862
:2043E0002DD0E219926D0B2A55D11A68D4F8685204F5F473821804EB850541F214008842DF
:20440000C5F8E82188BF081CD4F8681203EB81010862D4F8680203EB80000666D4F8680205
:2044200003EB8000C0F840806169D3F88000401C814298BF5846C3F88000BDE8F08F41F2DB
:2044400014028A4288BF0A1C1B681146C0183246FFF764FDBDE8F08F9AF80010C24A40F288
:20446000844000FB0120D0F8980228B1D9F80000007CFBF70BFF70B904F58470016804EB6A
:204480008101C1F8E8606269D4F80811491C8A4200D859460160BDE8F08F2DE9FC4F614CAE
:2044A0000746BD006019D0F8A06001A906F110094846FCF7B1F906F1100B8046B8F1000F3C
:2044C000484619D1E1193F4B91F82C2040F2844606FB02F15E581EB10078FBF7D7FE28B976
:2044E000019800280CBF0A20092009E0019800280CBF0820072003E0B8F1050F02D10F2077
:2045000061198865B8F1010F51D05846FBF7D8FE3E192C366119DFF850A2C867307840F2EF
:20452000844909FB00A0D0F89802A0B99BF80000FBF7ACFE78B1317809FB01A0D0F8D80207
:2045400048B158466A46FCF713F958BB00993846FFF7CBFD26E06019806D0A2822D16448F0
:204560000068022803D13846FFF730FD8046614801689948B8F1000F0CD0B8F1040F1FD13B
:20458000401860634FF48056A66327640125E563BDE8FC8F40183A464FF48051FFF773FD63
:2045A000BDE8FC8F3846FFF79BFEBDE8FC8F052020210022FBF7BFFD38460221FFF7EBFDD9
:2045C000BDE8FC8FF4EB0008F0B5164CA06A656A002814DD04F55C7604F1580306EB850139
:2045E0000A6853F82270032F33D0042F07D0401E05F10105A06205F03F056562EEDC04EB18
:20460000850101F55C710A6804F1580656F82230032B1ED0042B38D167682FB16D1E30D45A
:2046200030E0C046F4F300086C4F07EB85000068FFF733FF20686D1C05F03F05401E20608B
:2046400023D007EB8500016856F821100429EED0F0BDA318624A93F82C30C2EBC31252F856
:20466000043C17681F430AD1676847B9012060600868FFF712FF2068401E2060F0BD6D1E79
:2046800000D53F256562401CA062F0BD10260100F0B50E461749C54D09680746082201EB99
:2046A000471000212D18284608F058F9C04C04202946BD00087064192068801C02884A80BD
:2046C0000B4ACE711268032A18BF002305D10088030203F47F4343EA20238220082200F05D
:2046E00083FF0646CD489EB3042E3BD104E0C04640F90008E4ED00084219583211680E29AF
:204700000ED1D0F8E41100F5D0724B1E0029D8BF07235364D0F8E411012742F82170F0BD5F
:204720000E2300F5F07113600A68012600EB8202C2F8A061D0F8E02100EB8202C2F8C07199
:20474000D0F8E001401C0828A8BF00200860F0BDC7612368012241191A741027C1F8C420F6
:2047600040198765F0BDC0465CE9000830B50446CD488E490068A94D00EB44100918CB4808
:20478000CA89CB890068120202F47F42032842EA132202F1100218BF002309D12846A0309C
:2047A00050F824004088030203F47F4343EA2023822000F019FF68B928461022C46100EB1C
:2047C00084018A654169A14204D9416A491C01F03F01416230BDC0461016010064F700089A
:2047E000C8FEFF04F0B58D4C04F11C052A6890002118896D3C35102953D12118D1F8A0108B
:20480000097C04F1A006012913D00027A7603058007CFBF73BFD50B1E269A018BE4990F87C
:204820002C3040F2844058430B580BB101E0E2696760900021186769D1F8C4306BB30023E2
:204840002B506169914228D931584888C0F3052004EB8006D6F8700204F51C7C891C401EC5
:20486000C6F8700204D50888C0F305204CF8203004F5A870016804EB8101C1F83021D4F872
:204880005021012604EB8202C2F81061D4F85011491C8F4298BF191C0160206808B1FFF75B
:2048A00093FED4F89C0104F5AC7281005758002F6ED1D4F8E40104F5D0728000175857B166
:2048C00011180027096A1750506C401C0828A8BF381C506400E0012773480068002F4DD080
:2048E0007248006802285FD1A06800285CD1E06B20B1206C55F820100C2933D0D4F86C0248
:2049000080000119D1F8481255F8211004F5F4760B2949D13018006EFFF758FB002843D170
:20492000D4F86C0206EB8000006E052145F82010D4F86C0280008219116A3058126EFFF7FD
:20494000EDFA88BBD4F86C02002106EB800001646269D6F88400401C824298BF081CC6F886
:204960008400F0BDFFF732FBF0B9606BA16B226CFFF789FB08B90020E063F0BD0B4A00EB4A
:204980004110D21D125C08461146FFF781FEF0BD50180023006A5350516C491C0829A8BF50
:2049A000191C5164FFF7E2FEF0BDC046F014010094F400085849F0B5086C28B108680028C4
:2049C0001CBF0879401C00D10820144C0021482204F588756061284607F0C0FF616901266F
:2049E00004F154070022134657F8040F012810D099423A600DD9D4F8500105EB8000036234
:204A0000D4F8500145F82060D4F85001401CC4F850015B1C092BE7D3F0BDC046F4F300082F
:204A200030B50446032000F0E6FC832000F0E3FC07F062FFC54D0021482205F5AC7007F0DE
:204A40008DFF0021882205F5F47007F087FF0021102205F1340007F081FF0021242205F1D3
:204A60007C0007F07BFF00214FF4807205F51C7007F074FF0021242205F1C40007F06EFF7E
:204A80000021282205F1E80007F068FF0020A8606860286028626862A862E86028610CB10B
:204AA000FFF788FF30BDC046E4ED000840F900081948F0B54438006808B108F099F8FFF74A
:204AC00079FFAF4AD7682FBBA0480446D4F8541100F588708900475867B143181D6AA561C4
:204AE00000264650416C6369491C8B4298BF311C416400E0A569A448A2491288006800231C
:204B000000EB45100918022000F06EFD04EB85040120A065F0BDC046F4EB000810B58B4CE3
:204B20000021242204F1580007F018FF0021482204F5D07007F012FF022000F05CFC8220DB
:204B400000F059FC0020FFF76BFF90489049914AFEF7DCFF90490020FEF7D2FF8F4908682D
:204B600008B9486808B1FFF7A3FF10BD8C4930B5822007F029F98B49022007F025F98A4953
:204B8000832007F021F98949032007F01DF9884807F016F97C4D7B4C286800214FF4907203
:204BA000201807F0DBFE834829684FF490724018002107F0D3FE65492A680920A031A41815
:204BC00041F8044B401E04F12004F9D130BDB0B50F4601460B784FF0FF320024981125D069
:204BE000401E1DD0401E17D0181103F00F0300F00305012B08BF10F0030F17D0022B09D10C
:204C0000012D07D14B788878CA7840EA032042EA00220CE001240AE04A7802F01F0206E038
:204C20004A78180200F47C50024300E04A7807B13A602046B0BDF0B55F4F604C00231D4647
:204C400057F8046F7688B04209D1E658012E06D9102E04D2AA421CBF0D60012004D16D1CB5
:204C60001B1D092DECD30020F0BD704770B5374D06462C46E06880002118896D58350A2965
:204C800018D12018D0F8A000007CFBF7FFFA20B97068A064E068FFF723FBE0688200A11890
:204CA000D1F8C410002904BF0F20A85002D00021FFF771FAE06B58B1226C55F82200062871
:204CC00006D1606BA16BFFF7DEF908B90020E06370BDF0B51D4C04F1100528688100621865
:204CE000926D4835092A0AD16218D2F8C470002F04BF0F20685002D00021FFF74CFAD4F8DE
:204D00006C028100081900F50A70076804F5F476D7B1006A55F82000052815D18A19705865
:204D2000116A126EFFF7FAF870B9D4F86C02002106EB800001646269D6F88400401C8242F9
:204D400098BF081CC6F88400F0BDC046F4F300080246CD4890B543690121092B0ED200EB85
:204D60008300C3F10904543050F8047F27B1641E03F10103F8D101E013600021084690BD75
:204D800014FA0008D0130100E4ED000885510008C15000083D510008B14A000834EC000888
:204DA000E5470008C14D0008D34C00086D4C00081D4B0008F014010090F400084CF4000878
:204DC0002DE9FE47B0490C461431A06963690A684E68834221D8D4F8543104F588719B004F
:204DE000CF58D7B1CA180025176ACD504A6C6369521C934298BF2A1C8600A76104EB8700F9
:204E00004A64A119D0F8A000D1F8A010202207F0C5FDA01985656269A66904F158084FF03D
:204E2000020A48F826A0C34FDFF80C93D4F8540104F5887151F82030354633B904F11800B8
:204E4000FFF786FFF0B9A6690DE0D4F8540180000B181E6AA66100230B50486C401C82428D
:204E600098BF181C48644946C54A086812880023394600EB46100918504600F0B5FB0120F8
:204E800048F826006069A84240F20E81206A494604EB80000A68C0F87053206A3E4602EBC8
:204EA0004512B618401C00F03F0020623078CC46012818BF052840F0F58006F1080001A98B
:204EC000FFF785FE0198012807D13078012804D1307CA02804BF0020019070888111821114
:204EE00001F0FC0102F0FC026318A218D3F870E2D2F87012071204F51C79BEF1000F4FEA98
:204F0000006301F1010147EA1347C2F8701206DD69462A46FFF78FFE002840F0A3809DF8DE
:204F2000041028192C3001703278DCF8001004F12C06012A55D0052A40F0B48004EB850043
:204F40009DF80430D0F8A010002B01F1020746D10879401E0DD0401E2BD0801E29D0001F08
:204F600027D0083825D0303821D0403802281ED91BE0C888FF2202A9FFF75DFEB8B10298A8
:204F8000800058F80010012911D904290FD8002648F8006031462846FFF77AFB2068002843
:204FA000C4BF401E061C304656E0042112E0052110E0705D0121FEF737FA0120FFF730FDBC
:204FC00038880021801100F0FC0059F80020521C49F800202846FFF75BFBBDE8FE87092125
:204FE000F8E70778002F3AD1BC4A40F284407843175837B1B74801EB4511405CFBF746F9FD
:2050000090B92068616850EA01070BD1725DB449C1EBC21151F8042C0F68174304BF01205F
:20502000606010D0032114E02068616850EA01070ED1725DA849C1EBC2110A68012707FA6C
:2050400005F1114204D12846FFF727FABDE8FE87042148F82510401C2060BDE8FE870520BE
:2050600025210CE03078012810D1009804EB8004D4F8A0000078012808D10B204E2100229F
:20508000FBF759F8514616E0F4F3000801980021FEF7CAF90120FFF7C3FC07F03F070A21A1
:2050A000B80092E7514695E704EB8504D4F8A0000121017428212846FFF76DF8BDE8FE87F5
:2050C00070B506468748006802282DD1864D2C46206980002118896D58350F2906D12018AF
:2050E000D0F8A000007CFBF7D1F898B9E068800029580F2918D12018D0F8A000007CFBF748
:20510000C5F888B1E068012104EB8000C0F8C410E06806E02069012104EB8000C0F8C41060
:2051200020690021FFF737F87078B168FEF7DDFF70BDC046D0130100E4ED00086A4890B5E7
:20514000D0F80C1100EB8101D1F8E84000EB84018F6D00F1E80297B1516A4069491C8842EA
:2051600098BF00210320516200F045F9832000F042F907F099FB20460221FFF70CF890BD8A
:2051800014FA00082DE9F04F06467078FD2856D0554AD2F80C5102F1140102EB85000B6872
:2051A000D0F8E84002EB8400876D443102F1E80067B9D2F80811A94240F38980416A491C10
:2051C0008B4298BF00214162BDE8F08F456A6D1CAB4298BF00254562B5786D0827D2A00040
:2051E00001238218C2F8C43008580F281AD0092868D1D2F8A000007CFBF748F8002861D1E6
:2052000038480068022804D12046FEF7DFFE002858D1364936480A68B16880182246FEF7A1
:205220007DFE4FE020460021FEF7B5FF4AE0416A491E48BF591E4162FFF780FF42E0B07878
:2052400040083FD2776817F0FF0F18BF002409D117F47F4F18BF082404D117F47F0F14BF0F
:2052600010241824204D6869A0422BD94FF0010905F1580AC846CB4609FA04F10F421ED0A3
:20528000A1005AF801000F280BD0092805D0052803D00A2818BF0B280BD16818C0F8C4806E
:2052A00007E06818C0F8C48000212046FEF773FF77680BFA04F04740776003D06869641C43
:2052C0008442D9D30848006808B1FFF77DF9BDE8F08FC046E0130100CCFEFF04F4EB0008AD
:2052E000C8FEFF0440F90008F4F30008E4ED0008101601002DE9F047B84D074678009A46BE
:20530000914688464FF47A7620F4807040EAD710040103E0012006F0E3FF761E601B016847
:20532000C90A47D2002E47DD08F0FF06D14A40F808AC072E40F8049C08D111460C31096840
:2053400041F28A038B4238BF414602D348F48061601B082E01602AD1FEB2114636F07F0691
:2053600008D007F07F02D00000EB4210081800F5907006E007F07F02D00000EB4210081830
:205380008030466A9EB1380A0DD3C86B00280CBF062005204FF07D42D36801210A30814075
:2053A0005940916003E04FF07D418869C8610020BDE8F087002EADDC0220BDE8F087C2B2C4
:2053C00032F07F01864A1ABF111CA031111C00F07F03DA0002EB43128918C96900220904C7
:2053E000134641F00701FFF785BF42007D481E2107F0F8BB704770B5794C0546E8B230F04B
:205400007F0018BFA03405F07F01C80000EB41102418206A10B3E069002240F6081113464D
:2054200041EA00412846FFF765FF08B90020206207F083FB694C680020F4807040EAD51030
:20544000060142F2107503E0012006F049FF6D1E301B0068C00A03D2002D03DD002070BD13
:20546000002DF1DC022070BD2DE9F041814D0646F0B230F07F0718460B4607D106F07F043A
:20548000E10001EB44116C18803407E006F07F04E10001EB44116C1804F59074A3619968AA
:2054A000E160A260002767601A68010441F4837122603A46E0823046FFF71CFF5FEA0008CF
:2054C0001BD1012020622869032816D0454C04F108000068C0F3834002280ED1300A0CD30D
:2054E00020464FF4F0713A4607F07CFB20464FF4F0714FF4807207F075FB4046BDE8F08172
:20550000B54810B500235B4C0168E3610068636201F5893100F5863008604B6008228A60A3
:205520002320C8601846FFF79FFFE06A08B903F020F810BD30B50446E0B230F07F0014BFF8
:20554000BF4D274D04F07F01C80000EB41102D18686A10B12046FFF74EFF00222046042125
:205560001346FFF7C7FE08B9012028610CB9FFF7C7FF30BD4006820DB2484FF47E7107F046
:2055800031BB704770473B4810B50169032918D0C06DB0B1AB480C300068C0F38340032825
:2055A00018BF05280DD10F4C4FF4F0710022204607F018FB4FF4F0714FF48072204607F042
:2055C00011FB10BDA049020A28BFA03120F08000C20002EB401008587047C046F437FF036C
:2055E000B0F9000804C700FC2DE9F04FC7B2ADF1180D1C468C46039037F07F0702921D4835
:20560000019408D1039901F07F01CA0002EB41128518803508E0039901F07F01CA0002EB07
:205620004112851805F590752F6A00F10C010590002F18BF042040F0B980844A6046824284
:2056400004D0834A824218BF002200D101226A62614BDDF80CA07F4A1B681AF0800A0BD143
:20566000AF8A029C4032E419641EB4FBF7F4674303E0C04630F90008029F6E6AD84CDDF892
:205680000CC0002E04EA0C0403EB041422447AD0DDF814C0DCF83C403A46002C0CBF4FF4A9
:2056A00000354FF44035DA480027BAF1000F08D1B03001F5F8714FF4003E4FF00808C0183A
:2056C0000AE001F5DA71C018002C14BF4FF4804E4FF4004E4FF00A08019E01EB870340F68A
:2056E000110B00906FEA0509340403F1040C4BEA940BCDF810B096458CBF151C75464B6B3A
:20570000DDF814B009EA03034B63049BDBF80C4041F20A26521BA64207D1019E2EB1002F4E
:2057200004BFBAF1000F23F00103002A14BF042402244E6B4FF0000B06607F1C1C43C0F86F
:2057400004B04E6B8560AB194B63C4601030CCF800501AB1B8450CF1040CCCD8B84509D1BD
:20576000DDF800C0C0F800C05F4647605E4686608123C360CF62019F0A60DC468F63009A96
:20578000C1F830C00CE0019E10604FF0000C40F61300C2F804C03104976040EA9100D0603C
:2057A00011460398019B029AFFF75EFE06B0BDE8F08F10B501242046FFF71DFE44F080007E
:2057C000FFF719FE641C032CF5D910BD09040A0C00230221FFF78EBDE4ED0008C84A70B5B8
:2057E00012680D460646042A0EBF4FF40070D94830F81200D8494FF4A063A1F89400C4002F
:20580000A1F83401224601210020FFF773FD2DB10020022101220346FFF76CFDDD4B06F0A0
:205820001F068020012144EA4642FFF763FD2DB18020022101220023FFF75CFD70BDC0460C
:2058400050FA000800C700FCC0F90008000010C0000014C0101201002DE9F04317460E46B1
:205860000546FFF7A6FFD04C4FF040414FF08042204607F0B7F92A462068C00FFCD2A04CD7
:20588000DFF8209304200025103C09F11003206165611868E5616FF31F40E06002B1226099
:2058A00006B1666007B1A760DFF848C3DFF8408304F10C0E04F168012A4641F8285F56003D
:2058C000D0090D6126F480774D61521CC1F8A0500743C1F8B05008EA0606C1F8B450032AC0
:2058E000CCEB071740EA06003D604FEA001040F01000A0EB0C000560DFD9CC480068C3F892
:20590000E4524FF4007200F58531C3F8E01200F58530CEF82C02C44FC3F8E82241F21A067B
:20592000CEF8301201F50072C3F8EC521F21C3F8E075E768CEF83422BE42C3F8E81505D0B6
:2059400002216FF05F000A4607F04CF9D948DA4FDFF85C83006848B9E06841F21A318142E8
:205960000BD94FF4806138460A4602E0D349D44A484607F037F9404600683146F031814237
:2059800018D84FF4802138460A4607F02BF9484601212A4607F026F94FF4003138460A46D2
:2059A00007F020F94FF4803148460A4607F01AF9404600687036864205D2284609210246E8
:2059C0001346FFF797FC28460121FFF707FF0120A062E062322006F055FDBDE8F083C0463C
:2059E0007FFFFF0FD748006810F007000ED0401E08D0401E08D0401E04D0401E14BF0420BC
:205A0000032070470120704700207047022070479012010070B5504C06462069032815D1DA
:205A200004EB8600C06D88B15F4D4FF4F0710022284607F0D7F84FF4F0714FF4807228469E
:205A400007F0D0F884F848600120606470BD77490B68002814BFDB49D849D94A1268002A17
:205A600019440CBF0323042300220A604A601B018A6043F00303CB601346FFF7F5BC8C4B3A
:205A8000F0B507460C46FEB2104636F07F0607D107F07F05E90001EB45115918743107E096
:205AA00007F07F05E90001EB4511591801F58A710E6A9C46002E18BF04201CD15B4B1D6843
:205AC00047B9888ABD4B1118491EB1FBF0F61946704300E0BB4949190C60BCF88840002327
:205AE00084424B6098BF201C886040F65300C8603846FFF7B9FCF0BD0023FFF775BDC046E2
:205B000040F9000810B5284C2068000821D3FFF750FE20464FF00041002207F063F8204683
:205B20004FF4F0114FF4202207F05CF86048006841F28A01814208D94FF0804120460A4629
:205B400007F050F82068C00FFCD24FF4FA7006F099FC10BD64D0000830F900082DE9904188
:205B600088460022044603211346FFF7C3FB4146071C0BD1D04A600020F4807040EAD410A8
:205B8000C2EB00121068C0F3846008603846BDE89081C0460005000203484FF000410A4673
:205BA00007F020B810C100FC04C700FC70B50446C2481546CA00A306260A42F0060243F49A
:205BC000E06306D305F01F0543F00073A03042EA454224F08006F50005EB46154153204693
:205BE0000121FFF787FB20460121FFF7EFFD70BDFFFEFF0FF437FF0310B5002205210446E5
:205C00001346FFF777FB68B9E0B230F07F0014BFAB48AC4804F07F01CA00002402EB411215
:205C20008018046110BDC04604004600E4ED0008F0B50446A448006815469C46CA0042F0F5
:205C40000402032808BF42F07072A048A306012D43F440730AD9C66841F20A2743F08073F4
:205C6000B74203D1260A0CD243F40053260A08D224F08007FE0006EB47168019A0F89410F9
:205C80000DE024F080070CF01F0CFE0043F0007342EA4C4206EB47168019A0F834112046CD
:205CA0000121FFF727FB20462946FFF78FFDF0BD3CF90008ECED0008C0C200FC0000F8FF13
:205CC000000030752DE9F043804C04F110000068042870D07E4F4FF003091A49C7F8009067
:205CE0000868800CFCD3FFF764FDE06841F28A01814205D27749002002460346FFF7FAFA87
:205D0000DFF8D481206908EB4000018900220120FFF74CFF206908EB400001890122812083
:205D2000FFF744FF0120FFF767FF8120FFF764FF23690F25002B3DD0E06B0126012820D12F
:205D400002E0C0460CC700FC032B08BF022608EB4300018A012200230220FFF769FF0220C6
:205D6000FFF74AFF206908EB4000018A022332468220FFF75DFF8220FFF73EFF2046036965
:205D80003F2508EB4300018B324600234846FFF74FFF4846FFF730FF206908EB4000018B75
:205DA00032464B468320FFF743FF8320FFF724FF45F0C0053D60BDE8F083C046501201002B
:205DC00050F9000810120100F0B544493F4A0D68010A10D2D2F82812364CD2F8FC31082786
:205DE00005EB011102F5FE756418590C18BF4FF40033D16B16E002F5E076D16BF36A384C6D
:205E00000A2705EB031302F5E075E41829B93368DE0B18BF4FF4004304E033689E0B18BF41
:205E20004FF48043002914BF4FF440364FF400362968002908BF01203AD0696BB14340F684
:205E4000110C2E686963F61AA96B2E604FEA01414CEA910C14BF042102216E6B2660002623
:205E60006660A36041EA0C01E160E96A05EB81014B60696B5B186B63E96A491C8F42E96287
:205E800098BFEE62D16841F29A028A420ED9154A410021F4807141EAD011C2EB01121168B5
:205EA00001F0FF01072908BF301C01D0FFF787FAF0BDC04640130100F837FF03C4F9000869
:205EC00050FA0008B0F9000840F9000830F9000820C700FC0900020064D00008E4ED00084A
:205EE00090120100F437FF03D14900B5087848B108460178491E0170007818B9FFF702FEAC
:205F000006F076FE00BD10B5CA4C00214FF4B672201D06F023FD00202060C549087006F084
:205F2000DFFA03F098FA10BDC24AD168506901434FF0010005D1BE49097811B9116801B959
:205F40000020704702784178807841EA022140EA012070472DE9F841171C0E46054621D0DD
:205F60004FF0000805F0FF04C4F58074BC4288BF3C1C4146CDF8008006200A46134603F00A
:205F8000FFFE40B9CDF80080022029463246234603F0F6FE10B10120BDE8F8813F1B2544AA
:205FA0002644DFD10020BDE8F88110B500216C22044606F0D3FCA0482060A0486060A0480E
:205FC000A060A048E060A0482061A0486061A048A061A048E06110BD2DE9F04F1027ADF57A
:205FE000867D6E460D784A788B78CC787F1E01F1040142EA052243EA022344EA032446F890
:20600000044BEFD101AC30272668656B54F8043C216AF2084FEA952C7F1E82EAF612194496
:206020008CEA754C82EAB6428CEAF5430A441344E36304F10404E7D1C2688369C6690168C9
:20604000D0F80490D0F808E0D0F814B0DFF808C240274292E8464193026940965CF8045BD6
:2060600058F8043BDDF804A14FEAB21484EAF22484EA72645B19E418409B0BEA02062AEAF4
:20608000020A8AEA06057F1E25444FEAB10A419CCDF804B10EEA090640948AEA713A934651
:2060A0002B4409EA01040EEA0105429ACDF808E1CE4685EA040589468AEAB15486EA0506A2
:2060C0001A44264406EB0301C8D10768036946688568C919D2180160C46802614E447544ED
:2060E000429947698369C2694660091985600BEB07044461419F409CC160F918816143B0E8
:20610000A118C161BDE8F08F2DE9F0410546686A16460F4600EBC60290426A6202D9286AAD
:20612000401C2862286A4FF0000800EB567028621BE0A86EC0F14001C0F140048E4238BFA6
:20614000341C394622462818283006F027FCA86E361BE7192018A866402806D105F128014C
:206160002846FFF739FFC5F86880002EE1D1BDE8F081B0B50446A06E8023421CA2662018EA
:2061800080F82830A26E0D46382A0DD9A0180021C2F14002283006F0E1FB04F12801204608
:2061A000FFF71AFF0022A266A0180021C2F13802283006F0D3FB206A84F86300020C84F8D1
:2061C0006120616A84F867100F0E84F86470030E84F86030000A84F862000A0C84F86520F7
:2061E00020460A0A84F8662004F12801FFF7F4FE2D1F0827E078A278617805F8040F14F83B
:20620000043B6A70A9707F1EEB70F3D1B0BDC0B51746002610F8013B11F8012B7F1E82EAA9
:20622000030242EA0606F5D1002006B90120C0BD8CF0000890F0000867E6096A85AE67BBBD
:2062400072F36E3C3AF54FA57F520E518C68059BABD9831F19CDE05B94CE00082DE9F04F42
:20626000051C0F46ADF14C0D119200F069816C78E81CFFF767FE0646A81DFFF763FE8346C0
:20628000287804F01F083B2840F05A8134F01F0040F05681687A002840F052815F4540F0AA
:2062A0004F8105F025FA002840F04A81AC4CA9782068532900F03281084340F04181B8F131
:2062C000040F28D0B8F1050F40F03A8157EA0B0040F036814FF29E20B04240F03181E068BD
:2062E000002800F02D812069002800F029816069002840F0258104F1080100200422FFF78C
:2063000029FE002818BF0D2040F0228195490520087000201CE1ABF10100000B40F0108156
:206320001198002800F00C810BEB06084FF29E204045C0F0058166BB251D00214FF4B67262
:20634000284606F00BFB05F11400FFF72EFE05F18000FFF72AFE0025A9464946CDF800901B
:2063600006200A46134603F00BFD002840F090804A46CDF8009020202946134603F000FD0E
:20638000002840F0858005F58055280CE5D00120E060E068002800F0D3806069002840F0B3
:2063A000CF806068B04240F0CB801199251D05F114075A463846FFF7A7FEB8F5847F12974A
:2063C00016D9B6F5C47F13D2B6F5847F34BF4FF48471311C4246B2F5C47F88BF4FF4C472A3
:2063E00048198B1B521A11991C38C91806F0D6FA4246B2F5C67F15D94FF29E21091FB14208
:2064000010D905F18000B6F5C67F34BF4FF4C673331C914238BF0A1C119F991BD21A79189E
:20642000FFF772FE42463746B2F5C67F32D94FF29E20001FB8422DD9B7F5C67F38BF4FF4B1
:20644000C676904238BF021CA6F5C6799046A6EB070AB9F1040F11D2C6F5C877A8EB060094
:20646000B84238BF071C119909EB05003A465144001D06F093FABE19B944BA44B04509D907
:206480001199A8EB060248465144FFF763FD08B10D2040E060684FF29E2158446060814251
:2064A0007FF437AF129801A9FFF763FE05F1800009A9FFF75EFE9F4F01A8202207F1180174
:2064C000FFF7A5FE012608BB05F1EC0039460822FFF79DFEC8B105F1F40120270DF1240C44
:2064E000002311F8012B1CF8010B7F1E80EA020040EA0303F5D143B905F21312582112F88A
:20650000010F10B9491EFAD100E00026002E26617FF4FFAE11200121616119E0B8F1020FCD
:206520000ED1012E08BFBBF1000F3FF4F2AE3EB9BBF58C7F04D1E768002F08BF002801D033
:206540000B2005E011984FF48C71224604F068FF13B0BDE8F08F4170091201707047C0469E
:2065600090F000088CF00008B0B504461746101C15D0401E11D00F380DD0401E09D0401EFA
:2065800003D00E3803D0401E0DD1102508E0182506E0052504E02C2502E0062500E0122510
:2065A0000CB18D4201D90020B0BD204600212A4606F0D4F920463946FFF7CDFF281F002F11
:2065C000E0704FEA1021A17031D0012F2AD0102F0FD0112F0BD0122F07D0202F1CBF012029
:2065E000207337D10121084632E0042131E001201BE0202727760122227584F82920142194
:20660000E1750020A07504236376E076E07784F82A3084F82B000227A776A777802284F843
:20662000282017E0012060710020207112E01127E7721021617200202072A0722073A07387
:206640002074122363732022E273212767740121A071E1712846B0BDF0B5071C144602D08D
:20666000B1F5017F01D20020F0BD00214FF4017206F074F940F284454FF48076C2200222E0
:2066800078700021BA70CB4BF970381D05FB043232F8021BFFF75FFF761E00F10200F7D1D3
:2066A0004FF40170F0BD70B5064615460024184601E0401C641C0278002AFAD12A68A018B5
:2066C000401C814238BF00200CD3B0181946224606F064F92868002324182C60611C335543
:2066E0000120296070BDF0B50646069C05981546844238BF201C5A1E002412F8017F1FB149
:20670000401E04F10104F8D12A68A018401C814238BF00200CD3B0181946224606F03EF93D
:206720002868002724182C60611C375501202960F0BDC0465CCE00082DE9FE4F0C469D49A7
:20674000074640F2844390460520002F03FB0815029005F50B7A05F5047B00F0D880BC2CF4
:20676000C0F0D58038460021BC2206F0F7F8C0207870D5F88052404605F0AAFB0646214678
:2067800002AA88A33846FFF78EFF002800F0BF800298AC4600F109018C42C0F0B880DDF8B8
:2067A00008E0DFF814921C2200212CFA02F303F00F0319F803300EEB0105491C0829A2F189
:2067C00004027B55F1D300F109010025029108303D5402AA534628202146814600903846DA
:2067E000CDF80490FFF77FFF002800F0908014200090214602AA5B4601903846FFF773FFB5
:20680000002800F08480002E4BD1404604F095FD67A5022820D02B463846214602AAFFF7E8
:2068200042FF002873D03846214602AA2B46FFF73AFF00286BD03846214602AA2B46FFF720
:2068400032FF002863D03846214602AA2B46FFF72AFF00285BD064E0484620260090214629
:2068600002AA534638460196FFF73DFF00284ED02B463846214602AAFFF715FF002846D0FC
:206880003846214602AA2B46FFF70DFF00283ED03846214602AA2B46FFF705FF002836D094
:2068A0003FE0202000908046214602AA3346CDF804803846FFF717FF48B3CDF8008006F18D
:2068C00020033846214602AACDF80480FFF70BFFE8B110200090804606F14003214602AA4F
:2068E000CDF804803846FFF7FEFE80B106F1500140462A464B1E13F8016F1EB1401E02F16C
:206900000102F8D102981618701C844202D20020BDE8FE8F0298381806F040F8BD55701CB5
